{
  "transactions": [
    {
      "hash": "0xc77da3772ee9c5b32f631560970f2aeefda12cc2b508cf4fe5fc4c0ab47e7df0",
      "type": "CREATE",
      "contractName": "Ft",
      "contractAddress": "0x02f9ce8e6cc23ae1dbe49c632dd142b6e5ca1b1e",
      "tx": {
        "type": "0x02",
        "from": "0x2f09396f7f2c4f3d4b455242097829d27efca54b",
        "gas": "0x211ed",
        "value": "0x0",
        "data": "0x608060405234801561001057600080fd5b5060ec8061001f6000396000f3fe6080604052348015600f57600080fd5b506004361060325760003560e01c806394ff6059146037578063eaa81bc7146051575b600080fd5b603f60005481565b60405190815260200160405180910390f35b6060605c3660046079565b6062565b005b80600080828254607191906091565b909155505050565b600060208284031215608a57600080fd5b5035919050565b6000821982111560b157634e487b7160e01b600052601160045260246000fd5b50019056fea2646970667358221220c6f9d7ddd4909092d0b55c7ae368582a165e0b7f15f4b963b5afab3bb12ffca064736f6c634300080e0033",
        "nonce": "0x6",
        "accessList": []
      }
    },
    {
      "hash": "0xfba8f86d67d276874957a5b0ba1f525ef499f3656485e971a5ae7980d8ba3169",
      "type": "CALL",
      "contractName": "Ft",
      "contractAddress": "0x02f9ce8e6cc23ae1dbe49c632dd142b6e5ca1b1e",
      "function": "wave(uint256)",
      "arguments": [
        "1"
      ],
      "tx": {
        "type": "0x02",
        "from": "0x2f09396f7f2c4f3d4b455242097829d27efca54b",
        "to": "0x02f9ce8e6cc23ae1dbe49c632dd142b6e5ca1b1e",
        "gas": "0xdd84",
        "value": "0x0",
        "data": "0xeaa81bc70000000000000000000000000000000000000000000000000000000000000001",
        "nonce": "0x7",
        "accessList": []
      }
    }
  ],
  "receipts": [],
  "libraries": [],
  "pending": [
    "0xc77da3772ee9c5b32f631560970f2aeefda12cc2b508cf4fe5fc4c0ab47e7df0",
    "0xfba8f86d67d276874957a5b0ba1f525ef499f3656485e971a5ae7980d8ba3169"
  ],
  "path": "broadcast/Deploy.sol/5/run-latest.json",
  "returns": {},
  "timestamp": 1658111260
}