{
  "transactions": [
    {
      "hash": "0xd93a7759a8ff88208c3f9322038f5265b10b93e3b6266109a32623195552f6d9",
      "type": "CREATE",
      "contractName": "Ft",
      "contractAddress": "0xb733702ee3902a70ff7bbc9a9920a9227298b614",
      "tx": {
        "type": "0x02",
        "from": "0x2f09396f7f2c4f3d4b455242097829d27efca54b",
        "gas": "0x211ed",
        "value": "0x0",
        "data": "0x608060405234801561001057600080fd5b5060ec8061001f6000396000f3fe6080604052348015600f57600080fd5b506004361060325760003560e01c806394ff6059146037578063eaa81bc7146051575b600080fd5b603f60005481565b60405190815260200160405180910390f35b6060605c3660046079565b6062565b005b80600080828254607191906091565b909155505050565b600060208284031215608a57600080fd5b5035919050565b6000821982111560b157634e487b7160e01b600052601160045260246000fd5b50019056fea2646970667358221220c6f9d7ddd4909092d0b55c7ae368582a165e0b7f15f4b963b5afab3bb12ffca064736f6c634300080e0033",
        "nonce": "0x8",
        "accessList": []
      }
    },
    {
      "hash": "0xf1191605ae03b2deae8558f3847586238faf0817c84d670186683dcb5b6154de",
      "type": "CALL",
      "contractName": "Ft",
      "contractAddress": "0xb733702ee3902a70ff7bbc9a9920a9227298b614",
      "function": "wave(uint256)",
      "arguments": [
        "1"
      ],
      "tx": {
        "type": "0x02",
        "from": "0x2f09396f7f2c4f3d4b455242097829d27efca54b",
        "to": "0xb733702ee3902a70ff7bbc9a9920a9227298b614",
        "gas": "0xdd84",
        "value": "0x0",
        "data": "0xeaa81bc70000000000000000000000000000000000000000000000000000000000000001",
        "nonce": "0x9",
        "accessList": []
      }
    }
  ],
  "receipts": [
    {
      "transactionHash": "0xd93a7759a8ff88208c3f9322038f5265b10b93e3b6266109a32623195552f6d9",
      "transactionIndex": "0x1",
      "blockHash": "0x3d4361446a3ae5ef366d54217c77e51787c4ca27971730c4f6c8b9f4490d67d8",
      "blockNumber": "0x6e8fdd",
      "from": "0x2f09396f7f2c4f3d4b455242097829d27efca54b",
      "to": null,
      "cumulativeGasUsed": "0x2a426",
      "gasUsed": "0x197a3",
      "contractAddress": "0xb733702ee3902a70ff7bbc9a9920a9227298b614",
      "logs": [],
      "status": "0x1",
      "logsBloom": "0x00000000000000000000000000000000000000000000000000000000000000000000000000000000000000000000000000000000000000000000000000000000000000000000000000000000000000000000000000000000000000000000000000000000000000000000000000000000000000000000000000000000000000000000000000000000000000000000000000000000000000000000000000000000000000000000000000000000000000000000000000000000000000000000000000000000000000000000000000000000000000000000000000000000000000000000000000000000000000000000000000000000000000000000000000000000",
      "type": "0x2",
      "effectiveGasPrice": "0xb2d05e18"
    },
    {
      "transactionHash": "0xf1191605ae03b2deae8558f3847586238faf0817c84d670186683dcb5b6154de",
      "transactionIndex": "0x2",
      "blockHash": "0x3d4361446a3ae5ef366d54217c77e51787c4ca27971730c4f6c8b9f4490d67d8",
      "blockNumber": "0x6e8fdd",
      "from": "0x2f09396f7f2c4f3d4b455242097829d27efca54b",
      "to": "0xb733702ee3902a70ff7bbc9a9920a9227298b614",
      "cumulativeGasUsed": "0x34e8c",
      "gasUsed": "0xaa66",
      "contractAddress": null,
      "logs": [],
      "status": "0x1",
      "logsBloom": "0x00000000000000000000000000000000000000000000000000000000000000000000000000000000000000000000000000000000000000000000000000000000000000000000000000000000000000000000000000000000000000000000000000000000000000000000000000000000000000000000000000000000000000000000000000000000000000000000000000000000000000000000000000000000000000000000000000000000000000000000000000000000000000000000000000000000000000000000000000000000000000000000000000000000000000000000000000000000000000000000000000000000000000000000000000000000",
      "type": "0x2",
      "effectiveGasPrice": "0xb2d05e18"
    }
  ],
  "libraries": [],
  "pending": [],
  "path": "broadcast/Deploy.sol/5/run-latest.json",
  "returns": {},
  "timestamp": 1658111843
}